:100000000C94B5000C94D2000C94D2000C94D20045
:100010000C94D2000C94D2000C94D2000C94D20018
:100020000C94D2000C94D2000C94D2000C94D20008
:100030000C94D2000C94D2000C94D2000C94D200F8
:100040000C94D2000C94D2000C94D2000C94D200E8
:100050000C94D2000C94D2000C94D2000C94D200D8
:100060000C94D2000C94D2006E616E00696E660032
:1000700000407A10F35A00A0724E18090010A5D45F
:10008000E80000E87648170000E40B54020000CABC
:100090009A3B000000E1F505000080969800000002
:1000A00040420F000000A086010000001027000061
:1000B0000000E803000000006400000000000A00E7
:1000C000000000000100000000002C76D888DC67EA
:1000D0004F0823DFC1DFAE59E1B1B796E5E3E45342
:1000E000C63AE651997696E8E6C28426EB898C9B5F
:1000F00062ED407C6FFCEFBC9C9F40F2BAA56FA5FF
:10010000F490055A2AF75C936B6CF9676DC11BFC80
:10011000E0E40D47FEF520E6B500D0ED902E03009B
:10012000943577050080841E080000204E0A0000E8
:1001300000C80C333333330F986E12831141EF8DA7
:100140002114893BE65516CFFEE6DB18D1844B38E7
:100150001BF77C1D901DA4BBE424203284725E2218
:100160008100C9F124ECA1E53D2711241FBECFEF8A
:10017000D8E0DEBFCDBF11E0A0E0B1E0E2E3FBE1FB
:1001800002C005900D92AE33B107D9F721E0AEE37E
:10019000B1E001C01D92A43AB207E1F70E94EF045A
:1001A0000C94970D0C940000589A000058980895EC
:1001B000CF93C82F662311F0599A01C059982D98F2
:1001C0003D9A3C9A3B9A3A9A42984398449845986B
:1001D000CC230CF4429AC6FD439AC5FD449AC4FD53
:1001E000459A0E94D4004298439844984598C3FD8C
:1001F000429AC2FD439AC1FD449AC0FD459A0E94AD
:10020000D400459A449A439A429ACF9108958823FC
:1002100011F0599A01C059982D9A3D983C983B98F5
:100220003A98589A0000359B02C080E101C080E0F6
:1002300034998062339980643299806858980000BC
:10024000589A0000359981603499826033998460AE
:10025000329988605898089580E00E9407018823A9
:10026000DCF300C000C080E00E9407010895CF9336
:10027000C82F0E942C0160E08C2F0E94D800CF91E3
:100280000895611104C080580E9437010895805478
:100290000E943701089581E00E9437010895CF93AD
:1002A000C82F0E942C01CA3049F4803410F080E03D
:1002B00001C080E480580E94370104C061E08C2FA7
:1002C0000E94D800CF910895CF93DF93EC0121963F
:1002D000FC018081882329F00E944F0189918111BE
:1002E000FBCFDF91CF910895CF93C82F519A259AD4
:1002F000509A3D9A3C9A3B9A3A9A8FE99FE001972F
:10030000F1F700C00000449A459A0E94D40081EEA3
:1003100094E00197F1F700C000000E94D40095E13D
:100320009A95F1F700000E94D40085E18A95F1F7D3
:10033000000045980E94D40095E19A95F1F70000DD
:1003400088E20E94370188E00E9437010E944B0139
:1003500086E00E9437018C2F0E943701CF910895CB
:1003600080914201882379F04A9B98C04B9B96C0AC
:1003700010924201109246011092450110924401E0
:100380001092430108954A9984C04B9982C081E03C
:1003900090914101282F291B209341018093420114
:1003A00010924401109243010895809146018823E0
:1003B00099F14A9B29C080914401843668F4809168
:1003C0000101823028F08091010181508093010168
:1003D00081E08093000113C080914B01843020F0B4
:1003E00082E080934B0108C0815019F080934B014B
:1003F00003C083E080934B0181E080934001109221
:100400004601109244010DC080914401843648F4A5
:100410008F5F8093440105C04A9903C081E08093B7
:10042000460180914501882371F14B9B24C0809146
:100430004301843668F480910101853028F480916D
:1004400001018F5F8093010181E0809300010EC064
:1004500080914B018F5F843019F080934B0103C072
:1004600081E080934B0181E080934001109245012F
:1004700010924301089580914301843678F48F5F90
:100480008093430108954B9909C081E08093450111
:10049000089580914101882309F487CF0895CF936F
:1004A000DF93EC01909101019330A9F028F4913091
:1004B00041F0923059F026C0943099F09530D1F047
:1004C00021C081E390E0998388831CC088E390E099
:1004D0009983888317C086E394E3998388831A827B
:1004E00011C082E395E39983888386E390E09B8340
:1004F0008A8308C085E0E2E0F1E0DE0101900D9220
:100500008A95E1F7CE01DF91CF910895DC01FC01DE
:1005100001900020E9F73197AF01481B590B90E09B
:100520000CC0FD01E20FF31F80818E3229F4FD0122
:10053000E20FF31F158206C09F5F292F30E02417BA
:10054000350778F3FD0101900020E9F73197AF01FD
:100550004A1B5B0B90E007C0FD01E20FF31F808197
:10056000882331F09F5F292F30E024173507A0F34F
:10057000FD01E20FF31F85E280831182CD01089512
:10058000DC01FC0101900020E9F73197BF01681BF5
:10059000790B90E007C0FD01E20FF31F4081442377
:1005A00031F09F5F292F30E026173707A0F3FD01B8
:1005B000E20FF31F80E2808388E481838AE78283ED
:1005C0001382CD010895DC018C918E3221F08033AD
:1005D00081F490E006C090E08FEF890F08952033FA
:1005E00051F49F5FFD01E90FF11D20812E32B9F713
:1005F000F3CF80E00895892F0895DC018C91882342
:1006000049F080E08F5FFD01E80FF11D208121118D
:10061000F9CF01C080E081500895CF93DF93EC01C2
:100620000E94FD028F3FA1F0FE01E80FF11D9081B5
:10063000903359F006C0FE01E80FF11D9081903310
:1006400021F09E3231F4815004C08150A0F701C0E6
:100650008FEFDF91CF910895CF93DF93EC010E944C
:10066000E302482F50E0FE01E40FF51F2081222312
:1006700071F090E0AF01FE01E90FF11D20839F5F53
:10068000FA01E90FF11D20812111F5CF01C090E0A1
:10069000FE01E90FF11D1082CE010E940D03FE0143
:1006A000E80FF11D1182CE01DF91CF910895CF9314
:1006B000DF930E944B0187E091E00E946401C8E84B
:1006C000D0E02881398180918A0090918B003F93FE
:1006D0002F939F938F938DE091E09F938F9382E66A
:1006E00091E09F938F930E94070D82E691E00E9414
:1006F00064018AE00E944F0183E191E00E9464015D
:10070000888199812DB73EB7285F3F4F0FB6F89487
:100710003EBF0FBE2DBF892B29F120E030E048EC11
:1007200052E4609147017091480180914901909194
:100730004A010E948C079F938F937F936F938AE166
:1007400091E09F938F9382E691E09F938F930E9415
:10075000070D8DB79EB708960FB6F8949EBF0FBED3
:100760008DBF19C082E48F9388EC8F931F921F92E4
:100770008AE191E09F938F9382E691E09F938F931C
:100780000E94070D2DB73EB7285F3F4F0FB6F89474
:100790003EBF0FBE2DBF82E691E00E942C030E9457
:1007A00086020E94640162E08FE00E944101809114
:1007B0004101882319F088E40E944F01DF91CF9115
:1007C000089583E680938000809101018861809381
:1007D000810084B1866084B98FEF9FEF909385008C
:1007E00080938400089580E280937C0087E8809362
:1007F0007A00EEE7F0E080818360808308958AB11B
:10080000837F8AB98BB18C608BB9089581E2809324
:100810007C00EAE7F0E0808180648083808186FD4F
:10082000FDCFEAE7F0E0808180648083808186FDEF
:10083000FDCF809179008095089580E280937C00BF
:10084000EAE7F0E0808180648083808186FDFDCFCF
:10085000EAE7F0E0808180648083808186FDFDCFBF
:100860008091790008950E94060480933F010E94C0
:100870001D0480933E0190913F012091A3019213AA
:1008800004C02091A201821739F08093A2019093B5
:10089000A30181E0809300010895809101018330DC
:1008A00081F028F4813001F1823031F019C08430B8
:1008B00069F0853081F014C060E070E080E091E480
:1008C000089560E070E080E892E4089560E070E0F0
:1008D00080E893E4089560E070E080E894E408958F
:1008E00060E070E0CB01089560E070E080E89FE395
:1008F00008958F929F92AF92BF92CF92DF92EF9224
:10090000FF920E944D046B017C0160918800709100
:10091000890080E090E00E94FE0620E030E040E8A0
:100920005FE30E94F1054B015C01A7019601C7013D
:10093000B6010E94F1059B01AC01C501B4010E9402
:100940008C079B01AC0160E074E284E79BE40E94A9
:100950005D069F938F937F936F938AE191E09F93BE
:100960008F9381E591E09F938F930E94070D81E51E
:1009700091E00E942C030E94C0020E944B018DE175
:1009800091E00E9464018CE491E00E944F020E9479
:1009900064018AE00E944F0180E20E944F0181E5DC
:1009A00091E00E94640162E08FE00E9441018DB7F6
:1009B0009EB708960FB6F8949EBF0FBE8DBF80916C
:1009C0004101882319F088E40E944F01FF90EF90C5
:1009D000DF90CF90BF90AF909F908F9008958CE064
:1009E0000E9474010E94F3030E94FF038FE39CE9BD
:1009F0000197F1F700C000000E943304EFE3FCE927
:100A00003197F1F700C000000E94E10381E080937C
:100A10004B0108E810E00F2EFAE8EF2EF12CF02D34
:100A2000C1E8D0E00F2EF9E8CF2ED12CF02D0E9496
:100A3000B0010E94330480914B01823009F444C01C
:100A4000833009F488C0813009F0A5C0809140014D
:100A5000882321F0888187708093010180910001B3
:100A6000882351F180914101811129C080910101B8
:100A70008861888380913E018095F6018083809112
:100A80003F018095F80180836081718180E090E072
:100A90000E94FE0620914701309148014091490192
:100AA00050914A010E948C070E94CF06F701718382
:100AB00060831092000105C08091410181118091F5
:100AC00000010E94790467C080914001882321F0D1
:100AD000888187708093010180910001882399F1BA
:100AE00080914101811132C060913E0170E0762F0A
:100AF000662780913F01682B80E090E00E94FE060F
:100B000020E03FEF4FE757E40E945D064B015C0198
:100B100060934701709348018093490190934A0183
:100B2000F8016081718180E090E00E94FE06A501DD
:100B300094010E948C070E94CF06F70171836083A5
:100B40001092000105C08091410181118091000146
:100B50000E94570320C00E944B018AE291E00E944C
:100B6000640180913F014AE050E062E671E090E06C
:100B70000E949B0C0E94640180E391E00E9464014A
:100B800080913E014AE050E062E671E090E00E9410
:100B90009B0C0E94640180914401843648F062E01D
:100BA0008EE00E94410188E391E00E9464010CC044
:100BB00080914301843640F062E08EE00E94410162
:100BC0008BE391E00E9464018091400181111092B9
:100BD00040018FE39CE90197F1F700C0000027CFA7
:100BE0005058BB27AA270E9408060C9452070E945F
:100BF000440738F00E944B0720F039F49F3F19F466
:100C000026F40C9441070EF4E095E7FB0C943B07A7
:100C1000E92F0E94630758F3BA1762077307840726
:100C2000950720F079F4A6F50C9485070EF4E0956D
:100C30000B2EBA2FA02D0B01B90190010C01CA0196
:100C4000A0011124FF27591B99F0593F50F4503E41
:100C500068F11A16F040A22F232F342F4427585F33
:100C6000F3CF469537952795A795F0405395C9F74B
:100C70007EF41F16BA0B620B730B840BBAF0915003
:100C8000A1F0FF0FBB1F661F771F881FC2F70EC0A2
:100C9000BA0F621F731F841F48F487957795679575
:100CA000B795F7959E3F08F0B0CF9395880F08F061
:100CB0009927EE0F9795879508950E9471060C94D9
:100CC00052070E944B0758F00E94440740F029F455
:100CD0005F3F29F00C943B0751110C9486070C944C
:100CE00041070E94630768F39923B1F3552391F3F9
:100CF000951B550BBB27AA2762177307840738F08B
:100D00009F5F5F4F220F331F441FAA1FA9F335D0E7
:100D10000E2E3AF0E0E832D091505040E695001C9B
:100D2000CAF72BD0FE2F29D0660F771F881FBB1F55
:100D3000261737074807AB07B0E809F0BB0B802D33
:100D4000BF01FF2793585F4F3AF09E3F510578F05F
:100D50000C943B070C9486075F3FE4F3983ED4F372
:100D6000869577956795B795F7959F5FC9F7880F33
:100D7000911D9695879597F90895E1E0660F771F85
:100D8000881FBB1F621773078407BA0720F0621B16
:100D9000730B840BBA0BEE1F88F7E09508950E9441
:100DA0006B0788F09F5798F0B92F9927B751B0F08B
:100DB000E1F0660F771F881F991F1AF0BA95C9F7DF
:100DC00014C0B13091F00E948507B1E008950C94F1
:100DD0008507672F782F8827B85F39F0B93FCCF3A4
:100DE000869577956795B395D9F73EF4909580955C
:100DF000709561957F4F8F4F9F4F0895E89409C07C
:100E000097FB3EF490958095709561957F4F8F4F3D
:100E10009F4F9923A9F0F92F96E9BB279395F69553
:100E2000879577956795B795F111F8CFFAF4BB0FD1
:100E300011F460FF1BC06F5F7F4F8F4F9F4F16C035
:100E4000882311F096E911C0772321F09EE8872FBF
:100E5000762F05C0662371F096E8862F70E060E07B
:100E60002AF09A95660F771F881FDAF7880F9695F4
:100E7000879597F9089597F99F6780E870E060E09B
:100E800008959FEF80EC089500240A941616170623
:100E900018060906089500240A941216130614066B
:100EA00005060895092E0394000C11F4882352F0CE
:100EB000BB0F40F4BF2B11F460FF04C06F5F7F4F86
:100EC0008F4F9F4F089557FD9058440F551F59F06D
:100ED0005F3F71F04795880F97FB991F61F09F3F27
:100EE00079F087950895121613061406551FF2CF50
:100EF0004695F1DF08C0161617061806991FF1CFA0
:100F000086957105610508940895E894BB276627C6
:100F10007727CB0197F908950E949F070C945207F9
:100F20000E94440738F00E944B0720F0952311F0EF
:100F30000C943B070C94410711240C9486070E94E3
:100F4000630770F3959FC1F3950F50E0551F629FA3
:100F5000F001729FBB27F00DB11D639FAA27F00D12
:100F6000B11DAA1F649F6627B00DA11D661F829F39
:100F70002227B00DA11D621F739FB00DA11D621F1E
:100F8000839FA00D611D221F749F3327A00D611D3B
:100F9000231F849F600D211D822F762F6A2F11241D
:100FA0009F5750409AF0F1F088234AF0EE0FFF1F50
:100FB000BB1F661F771F881F91505040A9F79E3FA7
:100FC000510580F00C943B070C9486075F3FE4F3D7
:100FD000983ED4F3869577956795B795F795E795FD
:100FE0009F5FC1F7FE2B880F911D9695879597F906
:100FF0000895A0E1B0E0EFEFF7E00C94760B7C01F0
:101000001B016A01FC0117821682838181FF44C3A0
:101010009E012F5F3F4F3901F7019381F10193FD4D
:10102000859193FF81911F01882309F431C3853293
:1010300039F493FD859193FF81911F01853239F435
:10104000B70190E00E94CB0C56016501E5CF10E09E
:10105000512C912CFFE1F915D8F08B3279F038F44E
:10106000803279F08332A1F4F92DF0612EC08D32F7
:1010700061F0803369F4292D21602DC0392D326053
:10108000932E892D8460982E2AC0E92DE86015C022
:1010900097FC2DC020ED280F2A3088F496FE06C05C
:1010A0003AE0139F200D1124122F19C08AE0589E98
:1010B000200D1124522EE92DE0629E2E10C08E329A
:1010C00031F496FCE5C2F92DF0649F2E08C08C36F1
:1010D00021F4292D2068922E02C0883641F4F101B6
:1010E00093FD859193FF81911F018111B3CF9BEBFC
:1010F000980F933020F4992D9061805E07C09BE992
:10110000980F933008F066C1992D9F7E96FF16E0E8
:101110009F73992E853619F49064992E08C08636EF
:1011200021F4392F3068932E02C01111115097FE0F
:1011300007C01C3350F444244394410E27E00BC0F5
:10114000183038F027E017E005C027E09CE3492E6F
:1011500002C0212F412C560184E0A80EB11CF601DB
:101160006081718182819381042DA3010E94AD0B66
:101170006C01F981FC87F0FF02C0F3FF06C091FC0F
:1011800006C092FE06C000E205C00DE203C00BE2FD
:1011900001C000E08C858C7019F001115AC29BC20D
:1011A00097FE10C04C0CFC85F4FF04C08A8181338B
:1011B00009F44A94141474F528E0241578F588E0AD
:1011C000482E2CC096FC2AC0812F90E08C159D05DE
:1011D0009CF03CEFC3163FEFD30674F0892D806876
:1011E000982E0AC0E2E0F0E0EC0FFD1FE10FF11DC8
:1011F0008081803319F411501111F4CF97FE0EC085
:1012000044244394410E812F90E0C816D9062CF453
:101210001C1904C04424439401C010E097FE06C08A
:101220001C141D0434F4C601019605C085E090E04D
:1012300002C081E090E001110196112331F0212FCD
:1012400030E02F5F3F4F820F931F252D30E0821734
:10125000930714F4581A01C0512C892D897049F450
:10126000552039F0B70180E290E00E94CB0C5A94EF
:10127000F7CF002329F0B701802F90E00E94CB0C1C
:1012800093FC09C0552039F0B70180E390E00E943B
:10129000CB0C5A94F7CF97FE4CC04601D7FE02C044
:1012A000812C912CC60188199909F301E80FF91FC7
:1012B000FE87ED87960124193109388B2F87012F7E
:1012C00010E01195019511093FEF8316930629F45B
:1012D000B7018EE290E00E94CB0CC814D9044CF008
:1012E0008F8598898815990524F4ED85FE8581817F
:1012F00001C080E3F1E08F1A91082D853E852F5FB4
:101300003F4F3E872D87801691062CF0B70190E065
:101310000E94CB0CD9CFC814D90441F49A819633DA
:1013200020F4953319F43C8534FF81E3B70190E054
:101330004EC08A81813319F09C859F7E9C87B701BE
:1013400090E00E94CB0C111105C094FC18C085E6FA
:1013500090E017C0B7018EE290E00E94CB0C1E5FB8
:1013600082E001E0080FF301E80FF11D8081B70171
:1013700090E00E94CB0C802F0113F3CFE6CF85E4E1
:1013800090E0B7010E94CB0CD7FC06C0C114D10479
:1013900041F4EC85E4FF05C0D194C194D1088DE2FD
:1013A00001C08BE2B70190E00E94CB0C80E32AE001
:1013B000C216D1042CF08F5FFAE0CF1AD108F7CF14
:1013C000B70190E00E94CB0CB701C601C0960E9405
:1013D000CB0C54C1833631F0833779F0833509F073
:1013E00056C020C0560132E0A30EB11CF601808128
:1013F000898301E010E0630112C05601F2E0AF0EF4
:10140000B11CF601C080D18096FE03C0612F70E050
:1014100002C06FEF7FEFC6010E94900C8C01F92D86
:10142000FF7714C0560122E0A20EB11CF601C08065
:10143000D18096FE03C0612F70E002C06FEF7FEF96
:10144000C6010E94850C8C01F92DF0689F2EF3FDDA
:101450001AC0852D90E008171907A8F4B70180E29B
:1014600090E00E94CB0C5A94F4CFF60197FC859142
:1014700097FE81916F01B70190E00E94CB0C511053
:101480005A94015011090115110579F7F7C08436F6
:1014900011F0893661F5560197FE09C024E0A20ECD
:1014A000B11CF60160817181828193810AC0F2E0F2
:1014B000AF0EB11CF60160817181072E000C880B04
:1014C000990BF92DFF769F2E97FF09C09095809577
:1014D000709561957F4F8F4F9F4FF0689F2E2AE048
:1014E00030E0A3010E94290DC82EC6183FC0092D67
:1014F000853721F40F7E2AE030E01DC0097F8F364A
:1015000091F018F4883559F0C3C0803719F0883746
:1015100011F0BEC0006104FF09C0046007C094FE62
:1015200008C0066006C028E030E005C020E130E0D9
:1015300002C020E132E0560107FF09C084E0A80E96
:10154000B11CF601608171818281938108C0F2E053
:10155000AF0EB11CF6016081718180E090E0A301C3
:101560000E94290DC82EC6180F77902E96FE0BC02C
:10157000092D0E7FC11650F494FE0AC092FC08C0DB
:10158000092D0E7E05C0DC2C092D03C0DC2C01C00A
:10159000D12E04FF0DC0FE01EC0DF11D80818033C2
:1015A00011F4097E09C002FF06C0D394D39404C08D
:1015B000802F867809F0D39403FD11C000FF06C088
:1015C0001C2DD51480F4150D1D190DC0D51458F41B
:1015D000B70180E290E00E94CB0CD394F7CFD514F2
:1015E00010F45D1801C0512C04FF10C0B70180E356
:1015F00090E00E94CB0C02FF17C001FD03C088E7FA
:1016000090E002C088E590E0B7010CC0802F86789A
:1016100059F001FF02C08BE201C080E207FD8DE2BC
:10162000B70190E00E94CB0CC11638F4B70180E3FB
:1016300090E00E94CB0C1150F7CFCA94F301EC0D4F
:10164000F11D8081B70190E00E94CB0CC110F5CF55
:1016500015C0F4E0F51560F584E0581A93FE1FC03C
:10166000011127C02C8523FF2AC008E610E0392D80
:101670003071932EF8018491811124C0552009F412
:10168000E4CCB70180E290E00E94CB0C5A94F6CFF4
:10169000F7018681978126C08FEF9FEF23C0B701A6
:1016A00080E290E00E94CB0C5A945110F8CFD8CF32
:1016B000512CB701802F90E00E94CB0CD3CF0CE6C9
:1016C00010E0D5CF91108052B70190E00E94CB0C72
:1016D0000F5F1F4FCFCF23E0251510F483E0BDCF60
:1016E000512CC0CF6096E2E10C94920B2F923F9266
:1016F0004F925F926F927F928F929F92AF92BF9222
:10170000CF92DF92EF92FF920F931F93CF93DF93CD
:10171000CDB7DEB7CA1BDB0B0FB6F894DEBF0FBE2A
:10172000CDBF09942A88398848885F846E847D8477
:101730008C849B84AA84B984C884DF80EE80FD8079
:101740000C811B81AA81B981CE0FD11D0FB6F894EF
:10175000DEBF0FBECDBFED010895283008F027E0B1
:101760003327DA01990F311D87FD916000966105DD
:10177000710539F432602E5F3D9330E32A95E1F72D
:1017800008959F3F30F080387105610509F03C5F96
:101790003C5F3D93913008F08068911DDF93CF93BB
:1017A0001F930F93FF92EF92192F987F9695E92F31
:1017B00096959695E90FFF27E653FF4F9927332714
:1017C000EE24FF24A701E70105900894079428F46C
:1017D000360FE71EF81E491F511D660F771F881F21
:1017E000991F0694A1F70590079428F4E70EF81EB8
:1017F000491F561FC11D770F881F991F661F06942A
:10180000A1F70590079428F4F80E491F561FC71F2B
:10181000D11D880F991F661F771F0694A1F70590A9
:10182000079420F4490F561FC71FD81F990F661F32
:10183000771F881F0694A9F784911095177041F0BF
:10184000D695C79557954795F794E7941A95C1F79C
:10185000E0E7F0E0689415901591359165919591C8
:1018600005907FE27395E118F10A430B560BC90B03
:10187000D009C0F7E10CF11E431F561FC91FD01D30
:101880007EF4703311F48A95E6CFE894015030F07D
:10189000080F0AF40027021708F4202F2395022FBF
:1018A0007A3328F079E37D932A95E9F710C07D9388
:1018B0002A9589F606949795679537951795179405
:1018C000E118F10A430B560BC90BD00998F0239588
:1018D0007E9173957A3308F070E37C932013B8F708
:1018E0007E9170617D9330F0839571E37D9370E319
:1018F0002A95E1F71124EF90FF900F911F91CF915E
:10190000DF91992787FD90950895FC01059061501E
:1019100070400110D8F7809590958E0F9F1F089505
:10192000FC016150704001900110D8F780959095AE
:101930008E0F9F1F08954532510520F4423010F05C
:101940000C94A60CFB011082CB010895BB274A30F2
:1019500031F4992322F4BDE2909581959F4F0C9428
:10196000B20CBB27FB015527AA27880F991FAA1F76
:10197000A41710F0A41B83955051B9F7A05DAA33AA
:1019800008F0A95DA193009779F7B111B193119275
:10199000CB010C94870D0F931F93CF93DF93FB0123
:1019A000238121FD03C08FEF9FEF2CC022FF16C0C3
:1019B00046815781248135814217530744F4A08121
:1019C000B1819D012F5F3F4F318320838C9326810E
:1019D00037812F5F3F4F3783268314C08B01EC0183
:1019E000FB010084F185E02D0995892BE1F6D801F2
:1019F00016968D919C911797019617969C938E93AE
:101A00001697CE01DF91CF911F910F910895AEE00F
:101A1000B0E0EDE0FDE00C94840B0D891E8986E0BA
:101A20008C831A8309838FEF9FE79E838D83AE019A
:101A3000475E5F4F6F89788DCE0101960E94F9074E
:101A4000EF81F885E00FF11F10822E96E4E00C94F0
:101A5000A00BFA01AA27283051F1203181F1E89436
:101A60006F936E7F6E5F7F4F8F4F9F4FAF4FB1E091
:101A70003ED0B4E03CD0670F781F891F9A1FA11D8C
:101A8000680F791F8A1F911DA11D6A0F711D811D8D
:101A9000911DA11D20D009F468943F912AE0269F52
:101AA00011243019305D3193DEF6CF010895462FB1
:101AB0004770405D4193B3E00FD0C9F7F6CF462F92
:101AC0004F70405D4A3318F0495D31FD40524193FB
:101AD00002D0A9F7EACFB4E0A695979587957795B8
:101AE0006795BA95C9F700976105710508959B013F
:101AF000AC010A2E06945795479537952795BA95C8
:101B0000C9F7620F731F841F951FA01D0895DC0184
:101B1000FC01672F71917723E1F7329704C07C9124
:101B20006D9370836291AE17BF07C8F30895F89460
:021B3000FFCFE5
:101B320001053130323400447574793A0025752F2D
:101B4200257500496E20253A2000256600467265FB
:101B5200713A20202020503A20004C6F773A200022
:0E1B62000A486967683A20003C2D002D3E00BD
:00000001FF
